{
  "_format": "hh-sol-artifact-1",
  "contractName": "ItemsForSell",
  "sourceName": "contracts/Items.sol",
  "abi": [
    {
      "inputs": [],
      "stateMutability": "nonpayable",
      "type": "constructor"
    },
    {
      "anonymous": false,
      "inputs": [
        {
          "indexed": false,
          "internalType": "uint256",
          "name": "orderID",
          "type": "uint256"
        }
      ],
      "name": "OrderCreated",
      "type": "event"
    },
    {
      "anonymous": false,
      "inputs": [
        {
          "indexed": false,
          "internalType": "uint256",
          "name": "orderID",
          "type": "uint256"
        }
      ],
      "name": "OrderDelivered",
      "type": "event"
    },
    {
      "anonymous": false,
      "inputs": [
        {
          "indexed": false,
          "internalType": "uint256",
          "name": "orderID",
          "type": "uint256"
        }
      ],
      "name": "OrderPaid",
      "type": "event"
    },
    {
      "inputs": [
        {
          "internalType": "string",
          "name": "_productName",
          "type": "string"
        },
        {
          "internalType": "uint256",
          "name": "_price",
          "type": "uint256"
        }
      ],
      "name": "createOrder",
      "outputs": [],
      "stateMutability": "nonpayable",
      "type": "function"
    },
    {
      "inputs": [
        {
          "internalType": "uint256",
          "name": "_orderID",
          "type": "uint256"
        }
      ],
      "name": "deliverOrder",
      "outputs": [],
      "stateMutability": "nonpayable",
      "type": "function"
    },
    {
      "inputs": [],
      "name": "orderCounter",
      "outputs": [
        {
          "internalType": "uint256",
          "name": "",
          "type": "uint256"
        }
      ],
      "stateMutability": "view",
      "type": "function"
    },
    {
      "inputs": [
        {
          "internalType": "uint256",
          "name": "",
          "type": "uint256"
        }
      ],
      "name": "orders",
      "outputs": [
        {
          "internalType": "string",
          "name": "productName",
          "type": "string"
        },
        {
          "internalType": "uint256",
          "name": "price",
          "type": "uint256"
        },
        {
          "internalType": "address",
          "name": "buyer",
          "type": "address"
        },
        {
          "internalType": "address",
          "name": "seller",
          "type": "address"
        },
        {
          "internalType": "enum ItemsForSell.SupplyChainState",
          "name": "state",
          "type": "uint8"
        }
      ],
      "stateMutability": "view",
      "type": "function"
    },
    {
      "inputs": [],
      "name": "owner",
      "outputs": [
        {
          "internalType": "address",
          "name": "",
          "type": "address"
        }
      ],
      "stateMutability": "view",
      "type": "function"
    },
    {
      "inputs": [
        {
          "internalType": "uint256",
          "name": "_orderID",
          "type": "uint256"
        }
      ],
      "name": "payForOrder",
      "outputs": [],
      "stateMutability": "payable",
      "type": "function"
    }
  ],
  "bytecode": "0x608060405234801561001057600080fd5b50336000806101000a81548173ffffffffffffffffffffffffffffffffffffffff021916908373ffffffffffffffffffffffffffffffffffffffff1602179055506112e6806100606000396000f3fe6080604052600436106100555760003560e01c80638da5cb5b1461005a57806397de706f14610085578063a85c38ef146100ae578063b789bf52146100ef578063d9c2dcee1461011a578063ddff5e7d14610136575b600080fd5b34801561006657600080fd5b5061006f61015f565b60405161007c91906109fd565b60405180910390f35b34801561009157600080fd5b506100ac60048036038101906100a79190610ba8565b610183565b005b3480156100ba57600080fd5b506100d560048036038101906100d09190610c04565b6103a4565b6040516100e6959493929190610d36565b60405180910390f35b3480156100fb57600080fd5b506101046104af565b6040516101119190610d90565b60405180910390f35b610134600480360381019061012f9190610c04565b6104b5565b005b34801561014257600080fd5b5061015d60048036038101906101589190610c04565b61073a565b005b60008054906101000a900473ffffffffffffffffffffffffffffffffffffffff1681565b600073ffffffffffffffffffffffffffffffffffffffff163373ffffffffffffffffffffffffffffffffffffffff16036101f2576040517f08c379a00000000000000000000000000000000000000000000000000000000081526004016101e990610df7565b60405180910390fd5b6002600081548092919061020590610e46565b91905055506040518060a00160405280838152602001828152602001600073ffffffffffffffffffffffffffffffffffffffff1681526020013373ffffffffffffffffffffffffffffffffffffffff1681526020016000600281111561026e5761026d610cbf565b5b815250600160006002548152602001908152602001600020600082015181600001908161029b919061109a565b506020820151816001015560408201518160020160006101000a81548173ffffffffffffffffffffffffffffffffffffffff021916908373ffffffffffffffffffffffffffffffffffffffff16021790555060608201518160030160006101000a81548173ffffffffffffffffffffffffffffffffffffffff021916908373ffffffffffffffffffffffffffffffffffffffff16021790555060808201518160030160146101000a81548160ff0219169083600281111561035f5761035e610cbf565b5b02179055509050507f7e82078c35b6665b9d320ebeaa6c266960fad5b802c5558cf7df60c4769af95b6002546040516103989190610d90565b60405180910390a15050565b60016020528060005260406000206000915090508060000180546103c790610ebd565b80601f01602080910402602001604051908101604052809291908181526020018280546103f390610ebd565b80156104405780601f1061041557610100808354040283529160200191610440565b820191906000526020600020905b81548152906001019060200180831161042357829003601f168201915b5050505050908060010154908060020160009054906101000a900473ffffffffffffffffffffffffffffffffffffffff16908060030160009054906101000a900473ffffffffffffffffffffffffffffffffffffffff16908060030160149054906101000a900460ff16905085565b60025481565b600073ffffffffffffffffffffffffffffffffffffffff163373ffffffffffffffffffffffffffffffffffffffff1603610524576040517f08c379a000000000000000000000000000000000000000000000000000000000815260040161051b90610df7565b60405180910390fd5b6001600082815260200190815260200160002060010154341461057c576040517f08c379a0000000000000000000000000000000000000000000000000000000008152600401610573906111b8565b60405180910390fd5b600060028111156105905761058f610cbf565b5b6001600083815260200190815260200160002060030160149054906101000a900460ff1660028111156105c6576105c5610cbf565b5b14610606576040517f08c379a00000000000000000000000000000000000000000000000000000000081526004016105fd90611224565b60405180910390fd5b336001600083815260200190815260200160002060030160006101000a81548173ffffffffffffffffffffffffffffffffffffffff021916908373ffffffffffffffffffffffffffffffffffffffff160217905550600180600083815260200190815260200160002060030160146101000a81548160ff0219169083600281111561069457610693610cbf565b5b021790555060008054906101000a900473ffffffffffffffffffffffffffffffffffffffff1673ffffffffffffffffffffffffffffffffffffffff166108fc349081150290604051600060405180830381858888f193505050501580156106ff573d6000803e3d6000fd5b507f15e33efda35e5da2fb096ba49585307ba468af144aea691da964aaff1a7f3a578160405161072f9190610d90565b60405180910390a150565b600073ffffffffffffffffffffffffffffffffffffffff163373ffffffffffffffffffffffffffffffffffffffff16036107a9576040517f08c379a00000000000000000000000000000000000000000000000000000000081526004016107a090610df7565b60405180910390fd5b6001600082815260200190815260200160002060020160009054906101000a900473ffffffffffffffffffffffffffffffffffffffff1673ffffffffffffffffffffffffffffffffffffffff163373ffffffffffffffffffffffffffffffffffffffff16148061087a57506001600082815260200190815260200160002060030160009054906101000a900473ffffffffffffffffffffffffffffffffffffffff1673ffffffffffffffffffffffffffffffffffffffff163373ffffffffffffffffffffffffffffffffffffffff16145b6108b9576040517f08c379a00000000000000000000000000000000000000000000000000000000081526004016108b090611290565b60405180910390fd5b600160028111156108cd576108cc610cbf565b5b6001600083815260200190815260200160002060030160149054906101000a900460ff16600281111561090357610902610cbf565b5b14610943576040517f08c379a000000000000000000000000000000000000000000000000000000000815260040161093a90611224565b60405180910390fd5b60026001600083815260200190815260200160002060030160146101000a81548160ff0219169083600281111561097d5761097c610cbf565b5b02179055507fe21fe02c1589242b30be2057f54fd54b7ddc463695d19ffdb54f9ebb0584f24a816040516109b19190610d90565b60405180910390a150565b600073ffffffffffffffffffffffffffffffffffffffff82169050919050565b60006109e7826109bc565b9050919050565b6109f7816109dc565b82525050565b6000602082019050610a1260008301846109ee565b92915050565b6000604051905090565b600080fd5b600080fd5b600080fd5b600080fd5b6000601f19601f8301169050919050565b7f4e487b7100000000000000000000000000000000000000000000000000000000600052604160045260246000fd5b610a7f82610a36565b810181811067ffffffffffffffff82111715610a9e57610a9d610a47565b5b80604052505050565b6000610ab1610a18565b9050610abd8282610a76565b919050565b600067ffffffffffffffff821115610add57610adc610a47565b5b610ae682610a36565b9050602081019050919050565b82818337600083830152505050565b6000610b15610b1084610ac2565b610aa7565b905082815260208101848484011115610b3157610b30610a31565b5b610b3c848285610af3565b509392505050565b600082601f830112610b5957610b58610a2c565b5b8135610b69848260208601610b02565b91505092915050565b6000819050919050565b610b8581610b72565b8114610b9057600080fd5b50565b600081359050610ba281610b7c565b92915050565b60008060408385031215610bbf57610bbe610a22565b5b600083013567ffffffffffffffff811115610bdd57610bdc610a27565b5b610be985828601610b44565b9250506020610bfa85828601610b93565b9150509250929050565b600060208284031215610c1a57610c19610a22565b5b6000610c2884828501610b93565b91505092915050565b600081519050919050565b600082825260208201905092915050565b60005b83811015610c6b578082015181840152602081019050610c50565b60008484015250505050565b6000610c8282610c31565b610c8c8185610c3c565b9350610c9c818560208601610c4d565b610ca581610a36565b840191505092915050565b610cb981610b72565b82525050565b7f4e487b7100000000000000000000000000000000000000000000000000000000600052602160045260246000fd5b60038110610cff57610cfe610cbf565b5b50565b6000819050610d1082610cee565b919050565b6000610d2082610d02565b9050919050565b610d3081610d15565b82525050565b600060a0820190508181036000830152610d508188610c77565b9050610d5f6020830187610cb0565b610d6c60408301866109ee565b610d7960608301856109ee565b610d866080830184610d27565b9695505050505050565b6000602082019050610da56000830184610cb0565b92915050565b7f496e76616c696420616464726573730000000000000000000000000000000000600082015250565b6000610de1600f83610c3c565b9150610dec82610dab565b602082019050919050565b60006020820190508181036000830152610e1081610dd4565b9050919050565b7f4e487b7100000000000000000000000000000000000000000000000000000000600052601160045260246000fd5b6000610e5182610b72565b91507fffffffffffffffffffffffffffffffffffffffffffffffffffffffffffffffff8203610e8357610e82610e17565b5b600182019050919050565b7f4e487b7100000000000000000000000000000000000000000000000000000000600052602260045260246000fd5b60006002820490506001821680610ed557607f821691505b602082108103610ee857610ee7610e8e565b5b50919050565b60008190508160005260206000209050919050565b60006020601f8301049050919050565b600082821b905092915050565b600060088302610f507fffffffffffffffffffffffffffffffffffffffffffffffffffffffffffffffff82610f13565b610f5a8683610f13565b95508019841693508086168417925050509392505050565b6000819050919050565b6000610f97610f92610f8d84610b72565b610f72565b610b72565b9050919050565b6000819050919050565b610fb183610f7c565b610fc5610fbd82610f9e565b848454610f20565b825550505050565b600090565b610fda610fcd565b610fe5818484610fa8565b505050565b5b8181101561100957610ffe600082610fd2565b600181019050610feb565b5050565b601f82111561104e5761101f81610eee565b61102884610f03565b81016020851015611037578190505b61104b61104385610f03565b830182610fea565b50505b505050565b600082821c905092915050565b600061107160001984600802611053565b1980831691505092915050565b600061108a8383611060565b9150826002028217905092915050565b6110a382610c31565b67ffffffffffffffff8111156110bc576110bb610a47565b5b6110c68254610ebd565b6110d182828561100d565b600060209050601f83116001811461110457600084156110f2578287015190505b6110fc858261107e565b865550611164565b601f19841661111286610eee565b60005b8281101561113a57848901518255600182019150602085019450602081019050611115565b868310156111575784890151611153601f891682611060565b8355505b6001600288020188555050505b505050505050565b7f496e76616c6964207061796d656e7420616d6f756e7400000000000000000000600082015250565b60006111a2601683610c3c565b91506111ad8261116c565b602082019050919050565b600060208201905081810360008301526111d181611195565b9050919050565b7f496e76616c6964206f7264657220737461746500000000000000000000000000600082015250565b600061120e601383610c3c565b9150611219826111d8565b602082019050919050565b6000602082019050818103600083015261123d81611201565b9050919050565b7f556e617574686f72697a65642075736572000000000000000000000000000000600082015250565b600061127a601183610c3c565b915061128582611244565b602082019050919050565b600060208201905081810360008301526112a98161126d565b905091905056fea264697066735822122096b207a3c079d6fc9cd2f3fd9d32674ac8e3e5b9a8f55d36131608dc6732254f64736f6c63430008180033",
  "linkReferences": {},
  "deployedLinkReferences": {}
}